:100000000C949B000C9419070C94F2060C94CB06EC
:100010000C94A4060C94C3000C94C3000C947D06AD
:100020000C94C3000C94C3000C9484030C94F6034A
:100030000C94C3000C94C3000C94C3000C94C30034
:100040000C94C3000C94C3000C94C3000C94C30024
:100050000C94C3000C94C3000C94C3000C9433069E
:100060000C94C3000C94C3000C94C3000C94C30004
:100070000C94C3000C94C3000C94C3000C94C300F4
:100080000C94C3000C94C3000C94C3000C94C300E4
:100090000C94C3000C94C3000C94C3000C94C300D4
:1000A0000C94C3000C94C3000C94C300080B000212
:1000B0000202010009040000010202000005240000
:1000C0001001052401010104240206052406000193
:1000D0000705810310004009040100020A00000026
:1000E00007050202400000070583024000000403E8
:1000F000090441726475696E6F204C4C4300417273
:100100006475696E6F204C656F6E6172646F00126A
:10011000010002000000404123368000010102037B
:100120000112010002EF020140412336800001016B
:1001300002030100400711241FBECFEFDAE0DEBF4B
:10014000CDBF11E0A0E0B1E0E2E1F2E102C0059034
:100150000D92AE32B107D9F721E0AEE2B1E001C0B5
:100160001D92A03DB207E1F710E0CBE9D0E004C05A
:100170002197FE010E94FC08CA39D107C9F70E94E5
:1001800076070C9407090C940000E82FF0E0EE0FBE
:10019000FF1FE45FFE4F718360838230D9F028F443
:1001A000882341F0813071F008958330D9F0843094
:1001B00009F10895809169008C7F816080936900C6
:1001C000E89A089580916900837F84608093690034
:1001D000E99A0895809169008F7C8061809369001D
:1001E000EA9A0895809169008F7380648093690012
:1001F000EB9A089580916A008F7C806180936A00F9
:10020000EE9A0895FC0180915101811103C08FEF96
:100210009FEF08959FB7F89482E08093E9002091C2
:10022000F20030E01216130614F421E030E021153C
:10023000310559F0289884E6809350018091F100AF
:1002400080838091F200882319F09FBFC90108952F
:100250008BE68093E800F9CF8091480181110DC0B1
:1002600082E08093440184E080934501109247012D
:100270001092460181E08093480184E491E0089562
:1002800040913E0150913F0120913C0130913D0150
:1002900042175307B4F49091E8009570E1F3909100
:1002A000E80092FD19C08093F10080913E01909189
:1002B0003F0101968F739927892B19F48EEF809354
:1002C000E80080913E0190913F01019690933F019B
:1002D00080933E0181E0089580E00895CF92DF92FF
:1002E000EF92FF920F931F93CF93DF931F92CDB79F
:1002F000DEB7182F062FE42E862F880F8E5F998386
:100300000E94400183E00E944001F12EC12E99819C
:10031000D92E8C2D8F19801798F4F601E7FE02C0B4
:10032000849101C080810E944001182F80E00E94CA
:1003300040018123FFEFCF1ADF0A8111EACF01C00C
:1003400081E00F90DF91CF911F910F91FF90EF907F
:10035000DF90CF900895DF92EF92FF920F931F935B
:10036000CF93DF93D82E8A017B01E40EF51EEB01BB
:10037000CE15DF0571F0D7FE03C0FE01849101C0E8
:1003800088810E94400121968111F2CF8FEF9FEF6B
:1003900001C0C801DF91CF911F910F91FF90EF90A5
:1003A000DF9008950F931F93CF93DF931F92CDB7E4
:1003B000DEB782E0898342E450E06CEA70E080E8D6
:1003C0000E94AB010E942C01DC0112960D911C9140
:1003D00013970115110569F0D801ED91FC91028088
:1003E000F381E02DBE016F5F7F4FC801099597FF34
:1003F00007C089810F90DF91CF911F910F910895D0
:10040000F80100851185E5CF615030F02091F100B1
:10041000FC0120830196F8CF289884E68093500150
:100420000895CF92DF92EF92FF920F931F93CF9395
:10043000DF936C017A018B01C0E0D0E0CE15DF05BF
:1004400089F0D8016D918D01D601ED91FC9101905B
:10045000F081E02DC6010995892B11F47E0102C0BF
:100460002196ECCFC701DF91CF911F910F91FF90A3
:10047000EF90DF90CF90089508950895CF93DF9384
:100480001F92CDB7DEB76983DC01ED91FC9102804C
:10049000F381E02D41E050E0BE016F5F7F4F099591
:1004A0000F90DF91CF91089583E08093E9008091D0
:1004B000F200882319F08AE38093E8000895CF932F
:1004C000DF931F92CDB7DEB7FC018485958597FD3C
:1004D00005C02FEF3FEF358724870BC0CE01019673
:1004E0000E940201019719F4898190E002C08FEF08
:1004F0009FEF0F90DF91CF9108950F931F93CF93AC
:10050000DF931F92CDB7DEB78C01FC018485958502
:1005100097FF0EC0CE0101960E940201019719F4C7
:10052000298130E002C02FEF3FEFF80135872487A3
:10053000F801848595850F90DF91CF911F910F91E0
:100540000895FC018485958597FD0BC09FB7F894AD
:1005500082E08093E9008091F2009FBF90E00196D5
:1005600008959FB7F89482E08093E9008091F200AB
:100570009FBF90E008953FB7F89480912F0190912C
:100580003001A0913101B091320126B5A89B05C080
:100590002F3F19F00196A11DB11D3FBFBA2FA92F02
:1005A000982F8827820F911DA11DB11DBC01CD017F
:1005B00042E0660F771F881F991F4A95D1F708956B
:1005C000CF92DF92EF92FF920E94BB026B017C01FF
:1005D0000E94BB02DC01CB018C199D09AE09BF0949
:1005E000883E9340A105B10598F3FF90EF90DF900E
:1005F000CF9008958F929F92AF92BF92CF92DF9249
:10060000EF92FF920F931F93CF93DF935C016B01E7
:100610008A0180910B01882309F459C0809151010E
:10062000882309F454C08091420180FF05C0809165
:10063000E00082608093E000E8018AEFF82E93E00A
:10064000E92E2FE3822E3AE3932E2097C9F18FB73C
:10065000F894E092E9009091E80095FF06C090912F
:10066000F200282D291B922F01C090E08FBF91111D
:1006700006C0FA94FF2059F10E94E002E6CF292F2C
:1006800030E0C217D3070CF49C2F8FB7F894E09298
:10069000E9002091E80025FF11C0292F30E0C21B9E
:1006A000D30BF601915020F041914093F100FACF25
:1006B000C20ED31E9091E80095FF13C08FBFC5CF27
:1006C0005D9884E6809343011016110644F081E0A2
:1006D00090E0F5019383828380E090E005C0C8013B
:1006E00003C09092E800EACFDF91CF911F910F9164
:1006F000FF90EF90DF90CF90BF90AF909F908F9042
:10070000089508950E9402091F920F920FB60F924A
:1007100011248F939F938091E1009091E100937F4A
:100720009093E10083FF0FC01092E90091E0909355
:10073000EB001092EC0092E39093ED0010925101C7
:1007400098E09093F00082FF20C093E09093E9003E
:100750009091F200992319F09AE39093E800909118
:100760004301992339F090914301915090934301B3
:10077000992389F190915001992339F0909150017A
:10078000915090935001992341F184FF10C08091C2
:10079000E2008E7E81608093E2008091E1008F7E96
:1007A0008093E100809142018E7E806111C080FFC4
:1007B00016C08091E2008E7E80618093E20080917D
:1007C000E1008E7E8093E100809142018E7E816007
:1007D0008093420104C05D9ACDCF289AD6CF9F91D5
:1007E0008F910F900FBE0F901F9018951F920F9230
:1007F0000FB60F921124CF92DF92EF92FF920F93D8
:100800001F932F933F934F935F936F937F938F9398
:100810009F93AF93BF93EF93FF93CF93DF93CDB7A6
:10082000DEB76C97DEBFCDBF1092E9008091E80083
:1008300083FFFAC168E0CE0145960E94040282EF70
:100840008093E8008D8987FF05C09091E80090FFB4
:10085000FCCF03C09EEF9093E800982F907609F0AC
:10086000C6C09E892F89188D91110CC0803829F43B
:10087000809141018093F10002C01092F10010922A
:10088000F10047C1422F50E0512B913051F48111BA
:1008900040C14130510509F03CC1809141018D7F3B
:1008A0000BC0933061F4811134C14130510509F01E
:1008B00030C1809141018260809341012AC195300D
:1008C00041F48091E80080FFFCCF20682093E30092
:1008D00020C1963009F05FC0EB8CFC8C1092E900CF
:1008E00010923F0110923E01123091F510923D019D
:1008F00010923C010E94D20199E0BE016F5F7F4FD0
:10090000DB01E92F1D92EA95E9F799831A8391E0BB
:100910009E8390EA98879AEF998720913E013091C3
:100920003F01275F3F4F3C832B838D831092E9006B
:1009300010923F0110923E01F0923D01E0923C0185
:1009400049E050E080E00E94AB010E94D201E1C08A
:10095000F0923D01E0923C010E942C01DC011296D4
:10096000ED90FC901397E114F10409F4C0C0D70195
:10097000ED91FC910480F581E02DBE016B5E7F4F0F
:10098000C7010995009719F00CF0C3C0C6C0F70164
:10099000E084F184E8CF973009F4BFC0983021F4A7
:1009A00081E08093F100B5C0993009F0B2C0837046
:1009B00009F0B3C0E7E1F1E081E021E036E39081A6
:1009C000992361F08093E9002093EB00919190933B
:1009D000EC003093ED008F5F873089F78EE78093CE
:1009E000EA001092EA008F898093510192C08B8DAA
:1009F0009C8D1092E90010923F0110923E0190935D
:100A00003D0180933C01898D811156C08E899D895D
:100A1000913A59F4813209F080C047E050E064E037
:100A200071E080E00E94AB0174C0913209F075C0A2
:100A3000833289F4888D90E0982F88272F89822B24
:100A4000A0E0B0E08093000190930101A093020127
:100A5000B09303015EC0803269F48091E80082FFA8
:100A6000FCCF67E084E091E00E9404028BEF80936A
:100A7000E80006C0823209F04CC08F8980930B01D8
:100A800080914001882319F0EEEFFAE002C0E0E027
:100A9000F8E08091040190910501A0910601B091C8
:100AA0000701803B9440A105B10509F088C0809101
:100AB0000B0180FFA0C083C00E942C01DC011296B4
:100AC0000D911C9113970115110539F1D801ED9184
:100AD000FC910190F081E02DBE016B5E7F4FC8015B
:100AE0000995811116C0F80100851185ECCF1130F0
:100AF000C1F0133091F48F89882309F455C08230F6
:100B0000E9F440E860E18EEF90E00E946E018823F6
:100B100021F08EEF8093E80087C081E28093EB00A4
:100B200083C08B8D9C8D089711F410933B018091AD
:100B30003B01811136C06FE071E038C0813029F48B
:100B400040E86BE082EF90E0E0CF833031F70E9425
:100B50002C01DC011296ED90FC9013978E010F5F33
:100B60001F4F6801E114F10479F0D701ED91FC9178
:100B70000680F781E02DB801C7010995080F111D06
:100B8000F701E084F184EECFD8011C92F6010190C8
:100B90000020E9F73197BF016C197D0940E0C601DB
:100BA000B4CF61E271E002C06EEE70E061157105D4
:100BB00009F4B3CFFB01449150E080E833CF0FB686
:100BC000F894A895809160008861809360001092ED
:100BD00060000FBEA895EE3F2AE0F20739F0809141
:100BE000FE0A9091FF0A9183808393CF1092FF0AAF
:100BF0001092FE0A8ECFEE3F8AE0F80731F0808136
:100C000091819093FF0A8093FE0A87E797E791838B
:100C100080839BE088E10FB6F894A89580936000EC
:100C20000FBE9093600075CF6C960FB6F894DEBF40
:100C30000FBECDBFDF91CF91FF91EF91BF91AF91EB
:100C40009F918F917F916F915F914F913F912F91E4
:100C50001F910F91FF90EF90DF90CF900F900FBEFC
:100C60000F901F9018951F920F920FB60F9211249C
:100C70002F933F938F939F93AF93BF9380913301B3
:100C800090913401A0913501B091360130912E013F
:100C900023E0230F2D3720F40196A11DB11D05C0BF
:100CA00026E8230F0296A11DB11D20932E018093EB
:100CB000330190933401A0933501B09336018091B4
:100CC0002F0190913001A0913101B0913201019634
:100CD000A11DB11D80932F0190933001A09331018C
:100CE000B0933201BF91AF919F918F913F912F911E
:100CF0000F900FBE0F901F9018951F920F920FB676
:100D00000F9211242F933F934F935F936F937F9391
:100D10008F939F93AF93BF93EF93FF93E091140151
:100D2000F09115010995FF91EF91BF91AF919F91BE
:100D30008F917F916F915F914F913F912F910F9084
:100D40000FBE0F901F9018951F920F920FB60F9223
:100D500011242F933F934F935F936F937F938F93C0
:100D60009F93AF93BF93EF93FF93E0911201F091A4
:100D700013010995FF91EF91BF91AF919F918F91D1
:100D80007F916F915F914F913F912F910F900FBE87
:100D90000F901F9018951F920F920FB60F9211246B
:100DA0002F933F934F935F936F937F938F939F9373
:100DB000AF93BF93EF93FF93E0911001F091110176
:100DC0000995FF91EF91BF91AF919F918F917F9185
:100DD0006F915F914F913F912F910F900FBE0F90A8
:100DE0001F9018951F920F920FB60F9211242F93F8
:100DF0003F934F935F936F937F938F939F93AF93A3
:100E0000BF93EF93FF93E0910E01F0910F010995CD
:100E1000FF91EF91BF91AF919F918F917F916F91D2
:100E20005F914F913F912F910F900FBE0F901F90A8
:100E300018951F920F920FB60F9211242F933F9384
:100E40004F935F936F937F938F939F93AF93BF93D2
:100E5000EF93FF93E0910C01F0910D010995FF9143
:100E6000EF91BF91AF919F918F917F916F915F9122
:100E70004F913F912F910F900FBE0F901F9018959B
:100E8000E2E5F1E01382128288EE93E0A0E0B0E0A8
:100E900084839583A683B78381E291E091838083E5
:100EA0008FEF9FEF95878487E2EAF1E0108212824C
:100EB00013821482158280E280871186128613863F
:100EC0001486158616861786108A118A178A118E3F
:100ED000128E138E148E878F10A211A212A213A24B
:100EE00014A215A216A217A210A60895CF93DF93FD
:100EF000CDB7DEB767970FB6F894DEBF0FBECDBF94
:100F0000789484B5826084BD84B5816084BD85B5E4
:100F1000826085BD85B5816085BD80916E008160F0
:100F200080936E0010928100809181008260809396
:100F30008100809181008160809381008091800098
:100F40008160809380008091910082608093910005
:100F500080919100816080939100809190008160E8
:100F6000809390008091C10084608093C100809143
:100F7000C10082608093C1008091C1008160809334
:100F8000C1008091C30081608093C3008091C00044
:100F900082608093C0008091C20081608093C20013
:100FA00080917A00846080937A0080917A008260D8
:100FB00080937A0080917A00816080937A0080919A
:100FC0007A00806880937A0010925101109241015A
:100FD000109242018091D70081608093D70080EA0F
:100FE0008093D80089B5806189BD89B5826089BD4B
:100FF00009B400FEFDCF0E94E0028091D8008F7CF2
:1010000080618093D8008091E000807F8093E00031
:101010008091E1008E7E8093E1008DE08093E2007C
:10102000559A209AEEEFFFE7859194918B3F9C4D66
:1010300019F481E0809340018FEF9FEF90935F015F
:1010400080935E0117E1CE0101967C01DC01E12F66
:101050001D92EA95E9F700E20987FC01A2EAB1E0F6
:10106000812F01900D928A95E1F781E08093A30191
:101070001092A4011092A5011092A6011092A7014E
:1010800089E08093A8018AE08093A9010093AA01D6
:101090006CE372E080E00E94C500D701E12F1D9251
:1010A000EA95E9F70987F701A9EBB1E001900D9204
:1010B0001A95E1F782E08093A3011092A4011092A7
:1010C000A5011092A6011092A70185E08093A801C6
:1010D00086E08093A9010093AA016DE372E081E0AC
:1010E0000E94C50097E1B92E00E010E08FB7F89498
:1010F0004091330150913401609135017091360176
:101100008FBF8091370190913801A0913901B09142
:101110003A010596A11DB11D481759076A077B07BB
:1011200030F40115110511F30E940000DFCF2FB735
:10113000F8948091330190913401A0913501B091E0
:1011400036012FBF8093370190933801A093390166
:10115000B0933A01E2EAF1E083EB282E81E0382EE9
:1011600040E050E08FB7F894409033015090340144
:1011700060903501709036018FBFC184D284E384C2
:10118000F48422E3C20ED11CE11CF11C4C145D045A
:101190006E047F0430F14186528663867486C28075
:1011A000D380E480F580D1018C91B49E9001B59EEE
:1011B000300D11242E553E4F280F311D6585768543
:1011C0004601861A970AD90152968C928F5FD101F7
:1011D000853010F48C9301C01C92C586D686E786B4
:1011E000F08A7796B7E12B0E311C4130510509F496
:1011F00098CF41E050E0B6CFEE0FFF1F0590F4917D
:10120000E02D099481E090E0F8940C940709F8949B
:02121000FFCF0E
:10121200FFFFFFFF00E100000000000081038103E7
:1012220081038103810300C180810000000000006E
:0E123200003E02FA02A1025F027D0254020099
:00000001FF
